{
	"abi": [
		{
			"inputs": [],
			"stateMutability": "nonpayable",
			"type": "constructor"
		},
		{
			"anonymous": false,
			"inputs": [
				{
					"indexed": true,
					"internalType": "address",
					"name": "owner",
					"type": "address"
				},
				{
					"indexed": true,
					"internalType": "address",
					"name": "approved",
					"type": "address"
				},
				{
					"indexed": true,
					"internalType": "uint256",
					"name": "tokenId",
					"type": "uint256"
				}
			],
			"name": "Approval",
			"type": "event"
		},
		{
			"anonymous": false,
			"inputs": [
				{
					"indexed": true,
					"internalType": "address",
					"name": "owner",
					"type": "address"
				},
				{
					"indexed": true,
					"internalType": "address",
					"name": "operator",
					"type": "address"
				},
				{
					"indexed": false,
					"internalType": "bool",
					"name": "approved",
					"type": "bool"
				}
			],
			"name": "ApprovalForAll",
			"type": "event"
		},
		{
			"anonymous": false,
			"inputs": [
				{
					"indexed": true,
					"internalType": "address",
					"name": "previousOwner",
					"type": "address"
				},
				{
					"indexed": true,
					"internalType": "address",
					"name": "newOwner",
					"type": "address"
				}
			],
			"name": "OwnershipTransferred",
			"type": "event"
		},
		{
			"anonymous": false,
			"inputs": [
				{
					"indexed": false,
					"internalType": "bool",
					"name": "rentable",
					"type": "bool"
				},
				{
					"indexed": true,
					"internalType": "uint256",
					"name": "tokenId",
					"type": "uint256"
				},
				{
					"indexed": false,
					"internalType": "address",
					"name": "owner",
					"type": "address"
				}
			],
			"name": "TokenListedSuccess",
			"type": "event"
		},
		{
			"anonymous": false,
			"inputs": [
				{
					"indexed": true,
					"internalType": "address",
					"name": "from",
					"type": "address"
				},
				{
					"indexed": true,
					"internalType": "address",
					"name": "to",
					"type": "address"
				},
				{
					"indexed": true,
					"internalType": "uint256",
					"name": "tokenId",
					"type": "uint256"
				}
			],
			"name": "Transfer",
			"type": "event"
		},
		{
			"inputs": [
				{
					"internalType": "address",
					"name": "to",
					"type": "address"
				},
				{
					"internalType": "uint256",
					"name": "tokenId",
					"type": "uint256"
				}
			],
			"name": "approve",
			"outputs": [],
			"stateMutability": "nonpayable",
			"type": "function"
		},
		{
			"inputs": [
				{
					"internalType": "address",
					"name": "owner",
					"type": "address"
				}
			],
			"name": "balanceOf",
			"outputs": [
				{
					"internalType": "uint256",
					"name": "",
					"type": "uint256"
				}
			],
			"stateMutability": "view",
			"type": "function"
		},
		{
			"inputs": [],
			"name": "baseAmount",
			"outputs": [
				{
					"internalType": "uint256",
					"name": "",
					"type": "uint256"
				}
			],
			"stateMutability": "view",
			"type": "function"
		},
		{
			"inputs": [],
			"name": "baseTokenURI",
			"outputs": [
				{
					"internalType": "string",
					"name": "",
					"type": "string"
				}
			],
			"stateMutability": "view",
			"type": "function"
		},
		{
			"inputs": [
				{
					"internalType": "string",
					"name": "tokenURI",
					"type": "string"
				},
				{
					"internalType": "uint256",
					"name": "price",
					"type": "uint256"
				}
			],
			"name": "createToken",
			"outputs": [
				{
					"internalType": "uint256",
					"name": "",
					"type": "uint256"
				}
			],
			"stateMutability": "payable",
			"type": "function"
		},
		{
			"inputs": [],
			"name": "getAllNFTs",
			"outputs": [
				{
					"components": [
						{
							"internalType": "bool",
							"name": "rentable",
							"type": "bool"
						},
						{
							"internalType": "uint256",
							"name": "amountPerMinute",
							"type": "uint256"
						},
						{
							"internalType": "address payable",
							"name": "owner",
							"type": "address"
						},
						{
							"internalType": "address payable",
							"name": "renter",
							"type": "address"
						}
					],
					"internalType": "struct List.RentableItem[]",
					"name": "",
					"type": "tuple[]"
				}
			],
			"stateMutability": "view",
			"type": "function"
		},
		{
			"inputs": [
				{
					"internalType": "uint256",
					"name": "tokenId",
					"type": "uint256"
				}
			],
			"name": "getApproved",
			"outputs": [
				{
					"internalType": "address",
					"name": "",
					"type": "address"
				}
			],
			"stateMutability": "view",
			"type": "function"
		},
		{
			"inputs": [],
			"name": "getCurrentToken",
			"outputs": [
				{
					"internalType": "uint256",
					"name": "",
					"type": "uint256"
				}
			],
			"stateMutability": "view",
			"type": "function"
		},
		{
			"inputs": [],
			"name": "getListPrice",
			"outputs": [
				{
					"internalType": "uint256",
					"name": "",
					"type": "uint256"
				}
			],
			"stateMutability": "view",
			"type": "function"
		},
		{
			"inputs": [
				{
					"internalType": "uint256",
					"name": "tokenId",
					"type": "uint256"
				}
			],
			"name": "getListedTokenForId",
			"outputs": [
				{
					"components": [
						{
							"internalType": "bool",
							"name": "rentable",
							"type": "bool"
						},
						{
							"internalType": "uint256",
							"name": "amountPerMinute",
							"type": "uint256"
						},
						{
							"internalType": "address payable",
							"name": "owner",
							"type": "address"
						},
						{
							"internalType": "address payable",
							"name": "renter",
							"type": "address"
						}
					],
					"internalType": "struct List.RentableItem",
					"name": "",
					"type": "tuple"
				}
			],
			"stateMutability": "view",
			"type": "function"
		},
		{
			"inputs": [],
			"name": "getMyNFTs",
			"outputs": [
				{
					"components": [
						{
							"internalType": "bool",
							"name": "rentable",
							"type": "bool"
						},
						{
							"internalType": "uint256",
							"name": "amountPerMinute",
							"type": "uint256"
						},
						{
							"internalType": "address payable",
							"name": "owner",
							"type": "address"
						},
						{
							"internalType": "address payable",
							"name": "renter",
							"type": "address"
						}
					],
					"internalType": "struct List.RentableItem[]",
					"name": "",
					"type": "tuple[]"
				}
			],
			"stateMutability": "view",
			"type": "function"
		},
		{
			"inputs": [
				{
					"internalType": "address",
					"name": "owner",
					"type": "address"
				},
				{
					"internalType": "address",
					"name": "operator",
					"type": "address"
				}
			],
			"name": "isApprovedForAll",
			"outputs": [
				{
					"internalType": "bool",
					"name": "",
					"type": "bool"
				}
			],
			"stateMutability": "view",
			"type": "function"
		},
		{
			"inputs": [],
			"name": "listPrice",
			"outputs": [
				{
					"internalType": "uint256",
					"name": "",
					"type": "uint256"
				}
			],
			"stateMutability": "view",
			"type": "function"
		},
		{
			"inputs": [],
			"name": "name",
			"outputs": [
				{
					"internalType": "string",
					"name": "",
					"type": "string"
				}
			],
			"stateMutability": "view",
			"type": "function"
		},
		{
			"inputs": [],
			"name": "owner",
			"outputs": [
				{
					"internalType": "address",
					"name": "",
					"type": "address"
				}
			],
			"stateMutability": "view",
			"type": "function"
		},
		{
			"inputs": [
				{
					"internalType": "uint256",
					"name": "tokenId",
					"type": "uint256"
				}
			],
			"name": "ownerOf",
			"outputs": [
				{
					"internalType": "address",
					"name": "",
					"type": "address"
				}
			],
			"stateMutability": "view",
			"type": "function"
		},
		{
			"inputs": [],
			"name": "renounceOwnership",
			"outputs": [],
			"stateMutability": "nonpayable",
			"type": "function"
		},
		{
			"inputs": [
				{
					"internalType": "uint256",
					"name": "",
					"type": "uint256"
				}
			],
			"name": "rentables",
			"outputs": [
				{
					"internalType": "bool",
					"name": "rentable",
					"type": "bool"
				},
				{
					"internalType": "uint256",
					"name": "amountPerMinute",
					"type": "uint256"
				},
				{
					"internalType": "address payable",
					"name": "owner",
					"type": "address"
				},
				{
					"internalType": "address payable",
					"name": "renter",
					"type": "address"
				}
			],
			"stateMutability": "view",
			"type": "function"
		},
		{
			"inputs": [
				{
					"internalType": "address",
					"name": "from",
					"type": "address"
				},
				{
					"internalType": "address",
					"name": "to",
					"type": "address"
				},
				{
					"internalType": "uint256",
					"name": "tokenId",
					"type": "uint256"
				}
			],
			"name": "safeTransferFrom",
			"outputs": [],
			"stateMutability": "nonpayable",
			"type": "function"
		},
		{
			"inputs": [
				{
					"internalType": "address",
					"name": "from",
					"type": "address"
				},
				{
					"internalType": "address",
					"name": "to",
					"type": "address"
				},
				{
					"internalType": "uint256",
					"name": "tokenId",
					"type": "uint256"
				},
				{
					"internalType": "bytes",
					"name": "data",
					"type": "bytes"
				}
			],
			"name": "safeTransferFrom",
			"outputs": [],
			"stateMutability": "nonpayable",
			"type": "function"
		},
		{
			"inputs": [
				{
					"internalType": "address",
					"name": "operator",
					"type": "address"
				},
				{
					"internalType": "bool",
					"name": "approved",
					"type": "bool"
				}
			],
			"name": "setApprovalForAll",
			"outputs": [],
			"stateMutability": "nonpayable",
			"type": "function"
		},
		{
			"inputs": [
				{
					"internalType": "bytes4",
					"name": "interfaceId",
					"type": "bytes4"
				}
			],
			"name": "supportsInterface",
			"outputs": [
				{
					"internalType": "bool",
					"name": "",
					"type": "bool"
				}
			],
			"stateMutability": "view",
			"type": "function"
		},
		{
			"inputs": [],
			"name": "symbol",
			"outputs": [
				{
					"internalType": "string",
					"name": "",
					"type": "string"
				}
			],
			"stateMutability": "view",
			"type": "function"
		},
		{
			"inputs": [
				{
					"internalType": "uint256",
					"name": "tokenId",
					"type": "uint256"
				}
			],
			"name": "tokenURI",
			"outputs": [
				{
					"internalType": "string",
					"name": "",
					"type": "string"
				}
			],
			"stateMutability": "view",
			"type": "function"
		},
		{
			"inputs": [
				{
					"internalType": "address",
					"name": "from",
					"type": "address"
				},
				{
					"internalType": "address",
					"name": "to",
					"type": "address"
				},
				{
					"internalType": "uint256",
					"name": "tokenId",
					"type": "uint256"
				}
			],
			"name": "transferFrom",
			"outputs": [],
			"stateMutability": "nonpayable",
			"type": "function"
		},
		{
			"inputs": [
				{
					"internalType": "address",
					"name": "newOwner",
					"type": "address"
				}
			],
			"name": "transferOwnership",
			"outputs": [],
			"stateMutability": "nonpayable",
			"type": "function"
		}
	],
	"bytecode": {
		"object": "0x60806040526512309ce54000600a556512309ce54000600b553480156200002557600080fd5b5060405180604001604052806005815260200164424554535560d81b815250604051806040016040528060048152602001634254535560e01b8152508160009081620000729190620001b1565b506001620000818282620001b1565b5050506200009e62000098620000b660201b60201c565b620000ba565b600c80546001600160a01b031916331790556200027d565b3390565b600780546001600160a01b038381166001600160a01b0319831681179093556040519116919082907f8be0079c531659141344cd1fd0a4f28419497f9722a3daafe3b4186f6b6457e090600090a35050565b634e487b7160e01b600052604160045260246000fd5b600181811c908216806200013757607f821691505b6020821081036200015857634e487b7160e01b600052602260045260246000fd5b50919050565b601f821115620001ac57600081815260208120601f850160051c81016020861015620001875750805b601f850160051c820191505b81811015620001a85782815560010162000193565b5050505b505050565b81516001600160401b03811115620001cd57620001cd6200010c565b620001e581620001de845462000122565b846200015e565b602080601f8311600181146200021d5760008415620002045750858301515b600019600386901b1c1916600185901b178555620001a8565b600085815260208120601f198616915b828110156200024e578886015182559484019460019091019084016200022d565b50858210156200026d5787850151600019600388901b60f8161c191681555b5050505050600190811b01905550565b612107806200028d6000396000f3fe6080604052600436106101815760003560e01c806372b3b620116100d1578063b88d4fde1161008a578063e0391b0911610064578063e0391b0914610517578063e985e9c51461052c578063ef2d174614610575578063f2fde38b1461058a57600080fd5b8063b88d4fde146104c2578063c87b56dd146104e2578063d547cfb71461050257600080fd5b806372b3b6201461033d5780638da5cb5b146103505780638e2645901461036e57806395d89b41146104095780639874cd971461041e578063a22cb465146104a257600080fd5b80634864d1401161013e57806368f1945f1161011857806368f1945f146102dd5780636eb588d9146102f257806370a0823114610308578063715018a61461032857600080fd5b80634864d14014610277578063629cb2e41461029b5780636352211e146102bd57600080fd5b806301ffc9a71461018657806306fdde03146101bb578063081812fc146101dd578063095ea7b31461021557806323b872dd1461023757806342842e0e14610257575b600080fd5b34801561019257600080fd5b506101a66101a13660046119e7565b6105aa565b60405190151581526020015b60405180910390f35b3480156101c757600080fd5b506101d06105fc565b6040516101b29190611a5c565b3480156101e957600080fd5b506101fd6101f8366004611a6f565b61068e565b6040516001600160a01b0390911681526020016101b2565b34801561022157600080fd5b50610235610230366004611aa4565b6106b5565b005b34801561024357600080fd5b50610235610252366004611ace565b6107cf565b34801561026357600080fd5b50610235610272366004611ace565b610800565b34801561028357600080fd5b5061028d600b5481565b6040519081526020016101b2565b3480156102a757600080fd5b506102b061081b565b6040516101b29190611b0a565b3480156102c957600080fd5b506101fd6102d8366004611a6f565b610a51565b3480156102e957600080fd5b50600a5461028d565b3480156102fe57600080fd5b5061028d600a5481565b34801561031457600080fd5b5061028d610323366004611b87565b610ab1565b34801561033457600080fd5b50610235610b37565b61028d61034b366004611c2e565b610b4b565b34801561035c57600080fd5b506007546001600160a01b03166101fd565b34801561037a57600080fd5b506103fc610389366004611a6f565b6040805160808082018352600080835260208084018290528385018290526060938401829052948152600d855283902083519182018452805460ff161515825260018101549482019490945260028401546001600160a01b03908116938201939093526003909301549091169082015290565b6040516101b29190611c87565b34801561041557600080fd5b506101d0610b8d565b34801561042a57600080fd5b50610471610439366004611a6f565b600d60205260009081526040902080546001820154600283015460039093015460ff9092169290916001600160a01b03918216911684565b60408051941515855260208501939093526001600160a01b03918216928401929092521660608201526080016101b2565b3480156104ae57600080fd5b506102356104bd366004611cc4565b610b9c565b3480156104ce57600080fd5b506102356104dd366004611d00565b610bab565b3480156104ee57600080fd5b506101d06104fd366004611a6f565b610be3565b34801561050e57600080fd5b506101d0610cf3565b34801561052357600080fd5b506102b0610d81565b34801561053857600080fd5b506101a6610547366004611d7c565b6001600160a01b03918216600090815260056020908152604080832093909416825291909152205460ff1690565b34801561058157600080fd5b5061028d610eba565b34801561059657600080fd5b506102356105a5366004611b87565b610eca565b60006001600160e01b031982166380ac58cd60e01b14806105db57506001600160e01b03198216635b5e139f60e01b145b806105f657506301ffc9a760e01b6001600160e01b03198316145b92915050565b60606000805461060b90611daf565b80601f016020809104026020016040519081016040528092919081815260200182805461063790611daf565b80156106845780601f1061065957610100808354040283529160200191610684565b820191906000526020600020905b81548152906001019060200180831161066757829003601f168201915b5050505050905090565b600061069982610f43565b506000908152600460205260409020546001600160a01b031690565b60006106c082610a51565b9050806001600160a01b0316836001600160a01b0316036107325760405162461bcd60e51b815260206004820152602160248201527f4552433732313a20617070726f76616c20746f2063757272656e74206f776e656044820152603960f91b60648201526084015b60405180910390fd5b336001600160a01b038216148061074e575061074e8133610547565b6107c05760405162461bcd60e51b815260206004820152603d60248201527f4552433732313a20617070726f76652063616c6c6572206973206e6f7420746f60448201527f6b656e206f776e6572206f7220617070726f76656420666f7220616c6c0000006064820152608401610729565b6107ca8383610fa2565b505050565b6107d93382611010565b6107f55760405162461bcd60e51b815260040161072990611de9565b6107ca83838361108e565b6107ca83838360405180602001604052806000815250610bab565b6060600061082860085490565b905060008080805b848110156108c05733600d6000610848846001611e4c565b81526020810191909152604001600020600201546001600160a01b0316148061089b575033600d600061087c846001611e4c565b81526020810191909152604001600020600301546001600160a01b0316145b156108ae576108ab600185611e4c565b93505b806108b881611e64565b915050610830565b5060008367ffffffffffffffff8111156108dc576108dc611ba2565b60405190808252806020026020018201604052801561092e57816020015b6040805160808101825260008082526020808301829052928201819052606082015282526000199092019101816108fa5790505b50905060005b85811015610a475733600d600061094c846001611e4c565b81526020810191909152604001600020600201546001600160a01b0316148061099f575033600d6000610980846001611e4c565b81526020810191909152604001600020600301546001600160a01b0316145b15610a35576109af816001611e4c565b6000818152600d60209081526040918290208251608081018452815460ff161515815260018201549281019290925260028101546001600160a01b03908116938301939093526003810154909216606082015284519295509091849087908110610a1b57610a1b611e7d565b6020908102919091010152610a31600186611e4c565b9450505b80610a3f81611e64565b915050610934565b5095945050505050565b6000818152600260205260408120546001600160a01b0316806105f65760405162461bcd60e51b8152602060048201526018602482015277115490cdcc8c4e881a5b9d985b1a59081d1bdad95b88125160421b6044820152606401610729565b60006001600160a01b038216610b1b5760405162461bcd60e51b815260206004820152602960248201527f4552433732313a2061646472657373207a65726f206973206e6f7420612076616044820152683634b21037bbb732b960b91b6064820152608401610729565b506001600160a01b031660009081526003602052604090205490565b610b3f611239565b610b496000611293565b565b6000610b5b600880546001019055565b6000610b6660085490565b9050610b7233826112e5565b610b7c81856112ff565b610b868184611392565b9392505050565b60606001805461060b90611daf565b610ba73383836114e6565b5050565b610bb53383611010565b610bd15760405162461bcd60e51b815260040161072990611de9565b610bdd848484846115b4565b50505050565b6060610bee82610f43565b60008281526006602052604081208054610c0790611daf565b80601f0160208091040260200160405190810160405280929190818152602001828054610c3390611daf565b8015610c805780601f10610c5557610100808354040283529160200191610c80565b820191906000526020600020905b815481529060010190602001808311610c6357829003601f168201915b505050505090506000610c9e60408051602081019091526000815290565b90508051600003610cb0575092915050565b815115610ce2578082604051602001610cca929190611e93565b60405160208183030381529060405292505050919050565b610ceb846115e7565b949350505050565b60098054610d0090611daf565b80601f0160208091040260200160405190810160405280929190818152602001828054610d2c90611daf565b8015610d795780601f10610d4e57610100808354040283529160200191610d79565b820191906000526020600020905b815481529060010190602001808311610d5c57829003601f168201915b505050505081565b60606000610d8e60085490565b905060008167ffffffffffffffff811115610dab57610dab611ba2565b604051908082528060200260200182016040528015610dfd57816020015b604080516080810182526000808252602080830182905292820181905260608201528252600019909201910181610dc95790505b509050600080805b84811015610eb057610e18816001611e4c565b6000818152600d60209081526040918290208251608081018452815460ff161515815260018201549281019290925260028101546001600160a01b03908116938301939093526003810154909216606082015286519294509091869086908110610e8457610e84611e7d565b6020908102919091010152610e9a600185611e4c565b9350508080610ea890611e64565b915050610e05565b5091949350505050565b6000610ec560085490565b905090565b610ed2611239565b6001600160a01b038116610f375760405162461bcd60e51b815260206004820152602660248201527f4f776e61626c653a206e6577206f776e657220697320746865207a65726f206160448201526564647265737360d01b6064820152608401610729565b610f4081611293565b50565b6000818152600260205260409020546001600160a01b0316610f405760405162461bcd60e51b8152602060048201526018602482015277115490cdcc8c4e881a5b9d985b1a59081d1bdad95b88125160421b6044820152606401610729565b600081815260046020526040902080546001600160a01b0319166001600160a01b0384169081179091558190610fd782610a51565b6001600160a01b03167f8c5be1e5ebec7d5bd14f71427d1e84f3dd0314c0f7b2291e5b200ac8c7c3b92560405160405180910390a45050565b60008061101c83610a51565b9050806001600160a01b0316846001600160a01b0316148061106357506001600160a01b0380821660009081526005602090815260408083209388168352929052205460ff165b80610ceb5750836001600160a01b031661107c8461068e565b6001600160a01b031614949350505050565b826001600160a01b03166110a182610a51565b6001600160a01b0316146111055760405162461bcd60e51b815260206004820152602560248201527f4552433732313a207472616e736665722066726f6d20696e636f72726563742060448201526437bbb732b960d91b6064820152608401610729565b6001600160a01b0382166111675760405162461bcd60e51b8152602060048201526024808201527f4552433732313a207472616e7366657220746f20746865207a65726f206164646044820152637265737360e01b6064820152608401610729565b600081815260046020908152604080832080546001600160a01b03191690556001600160a01b0386168352600390915281208054600192906111aa908490611ec2565b90915550506001600160a01b03821660009081526003602052604081208054600192906111d8908490611e4c565b909155505060008181526002602052604080822080546001600160a01b0319166001600160a01b0386811691821790925591518493918716917fddf252ad1be2c89b69c2b068fc378daa952ba7f163c4a11628f55a4df523b3ef91a4505050565b6007546001600160a01b03163314610b495760405162461bcd60e51b815260206004820181905260248201527f4f776e61626c653a2063616c6c6572206973206e6f7420746865206f776e65726044820152606401610729565b600780546001600160a01b038381166001600160a01b0319831681179093556040519116919082907f8be0079c531659141344cd1fd0a4f28419497f9722a3daafe3b4186f6b6457e090600090a35050565b610ba782826040518060200160405280600081525061165a565b6000828152600260205260409020546001600160a01b031661137a5760405162461bcd60e51b815260206004820152602e60248201527f45524337323155524953746f726167653a2055524920736574206f66206e6f6e60448201526d32bc34b9ba32b73a103a37b5b2b760911b6064820152608401610729565b60008281526006602052604090206107ca8282611f27565b600a5434146113d75760405162461bcd60e51b81526020600482015260116024820152704e6f7420636f727265637420707269636560781b6044820152606401610729565b6000811161141b5760405162461bcd60e51b81526020600482015260116024820152705072696365206973206e6567617469766560781b6044820152606401610729565b604080516080810182526000808252600b5460208084019182523084860181815233606087018181528a8752600d909452969094209451855460ff19169015151785559151600185015591516002840180546001600160a01b03199081166001600160a01b039384161790915592516003909401805490931693169290921790556114a791908461108e565b604080516000815230602082015283917faf44ec0cc8ac7f3037af7d95ee36c6264868e0b035f5ab94ddfadc6932ca0087910160405180910390a25050565b816001600160a01b0316836001600160a01b0316036115475760405162461bcd60e51b815260206004820152601960248201527f4552433732313a20617070726f766520746f2063616c6c6572000000000000006044820152606401610729565b6001600160a01b03838116600081815260056020908152604080832094871680845294825291829020805460ff191686151590811790915591519182527f17307eab39ab6107e8899845ad3d59bd9653f200f220920489ca2b5937696c31910160405180910390a3505050565b6115bf84848461108e565b6115cb8484848461168d565b610bdd5760405162461bcd60e51b815260040161072990611fe7565b60606115f282610f43565b600061160960408051602081019091526000815290565b905060008151116116295760405180602001604052806000815250610b86565b806116338461178e565b604051602001611644929190611e93565b6040516020818303038152906040529392505050565b611664838361188f565b611671600084848461168d565b6107ca5760405162461bcd60e51b815260040161072990611fe7565b60006001600160a01b0384163b1561178357604051630a85bd0160e11b81526001600160a01b0385169063150b7a02906116d1903390899088908890600401612039565b6020604051808303816000875af192505050801561170c575060408051601f3d908101601f1916820190925261170991810190612076565b60015b611769573d80801561173a576040519150601f19603f3d011682016040523d82523d6000602084013e61173f565b606091505b5080516000036117615760405162461bcd60e51b815260040161072990611fe7565b805181602001fd5b6001600160e01b031916630a85bd0160e11b149050610ceb565b506001949350505050565b6060816000036117b55750506040805180820190915260018152600360fc1b602082015290565b8160005b81156117df57806117c981611e64565b91506117d89050600a836120a9565b91506117b9565b60008167ffffffffffffffff8111156117fa576117fa611ba2565b6040519080825280601f01601f191660200182016040528015611824576020820181803683370190505b5090505b8415610ceb57611839600183611ec2565b9150611846600a866120bd565b611851906030611e4c565b60f81b81838151811061186657611866611e7d565b60200101906001600160f81b031916908160001a905350611888600a866120a9565b9450611828565b6001600160a01b0382166118e55760405162461bcd60e51b815260206004820181905260248201527f4552433732313a206d696e7420746f20746865207a65726f20616464726573736044820152606401610729565b6000818152600260205260409020546001600160a01b03161561194a5760405162461bcd60e51b815260206004820152601c60248201527f4552433732313a20746f6b656e20616c7265616479206d696e746564000000006044820152606401610729565b6001600160a01b0382166000908152600360205260408120805460019290611973908490611e4c565b909155505060008181526002602052604080822080546001600160a01b0319166001600160a01b03861690811790915590518392907fddf252ad1be2c89b69c2b068fc378daa952ba7f163c4a11628f55a4df523b3ef908290a45050565b6001600160e01b031981168114610f4057600080fd5b6000602082840312156119f957600080fd5b8135610b86816119d1565b60005b83811015611a1f578181015183820152602001611a07565b83811115610bdd5750506000910152565b60008151808452611a48816020860160208601611a04565b601f01601f19169290920160200192915050565b602081526000610b866020830184611a30565b600060208284031215611a8157600080fd5b5035919050565b80356001600160a01b0381168114611a9f57600080fd5b919050565b60008060408385031215611ab757600080fd5b611ac083611a88565b946020939093013593505050565b600080600060608486031215611ae357600080fd5b611aec84611a88565b9250611afa60208501611a88565b9150604084013590509250925092565b6020808252825182820181905260009190848201906040850190845b81811015611b7b57611b68838551805115158252602080820151908301526040808201516001600160a01b039081169184019190915260609182015116910152565b9284019260809290920191600101611b26565b50909695505050505050565b600060208284031215611b9957600080fd5b610b8682611a88565b634e487b7160e01b600052604160045260246000fd5b600067ffffffffffffffff80841115611bd357611bd3611ba2565b604051601f8501601f19908116603f01168101908282118183101715611bfb57611bfb611ba2565b81604052809350858152868686011115611c1457600080fd5b858560208301376000602087830101525050509392505050565b60008060408385031215611c4157600080fd5b823567ffffffffffffffff811115611c5857600080fd5b8301601f81018513611c6957600080fd5b611c7885823560208401611bb8565b95602094909401359450505050565b608081016105f68284805115158252602080820151908301526040808201516001600160a01b039081169184019190915260609182015116910152565b60008060408385031215611cd757600080fd5b611ce083611a88565b915060208301358015158114611cf557600080fd5b809150509250929050565b60008060008060808587031215611d1657600080fd5b611d1f85611a88565b9350611d2d60208601611a88565b925060408501359150606085013567ffffffffffffffff811115611d5057600080fd5b8501601f81018713611d6157600080fd5b611d7087823560208401611bb8565b91505092959194509250565b60008060408385031215611d8f57600080fd5b611d9883611a88565b9150611da660208401611a88565b90509250929050565b600181811c90821680611dc357607f821691505b602082108103611de357634e487b7160e01b600052602260045260246000fd5b50919050565b6020808252602d908201527f4552433732313a2063616c6c6572206973206e6f7420746f6b656e206f776e6560408201526c1c881bdc88185c1c1c9bdd9959609a1b606082015260800190565b634e487b7160e01b600052601160045260246000fd5b60008219821115611e5f57611e5f611e36565b500190565b600060018201611e7657611e76611e36565b5060010190565b634e487b7160e01b600052603260045260246000fd5b60008351611ea5818460208801611a04565b835190830190611eb9818360208801611a04565b01949350505050565b600082821015611ed457611ed4611e36565b500390565b601f8211156107ca57600081815260208120601f850160051c81016020861015611f005750805b601f850160051c820191505b81811015611f1f57828155600101611f0c565b505050505050565b815167ffffffffffffffff811115611f4157611f41611ba2565b611f5581611f4f8454611daf565b84611ed9565b602080601f831160018114611f8a5760008415611f725750858301515b600019600386901b1c1916600185901b178555611f1f565b600085815260208120601f198616915b82811015611fb957888601518255948401946001909101908401611f9a565b5085821015611fd75787850151600019600388901b60f8161c191681555b5050505050600190811b01905550565b60208082526032908201527f4552433732313a207472616e7366657220746f206e6f6e20455243373231526560408201527131b2b4bb32b91034b6b83632b6b2b73a32b960711b606082015260800190565b6001600160a01b038581168252841660208201526040810183905260806060820181905260009061206c90830184611a30565b9695505050505050565b60006020828403121561208857600080fd5b8151610b86816119d1565b634e487b7160e01b600052601260045260246000fd5b6000826120b8576120b8612093565b500490565b6000826120cc576120cc612093565b50069056fea264697066735822122032d90444c4376e5b37b761792b335700d99e91ea643320d1c7632aa25e89822e64736f6c634300080f0033",
		"linkReferences": {}
	},
	"methodIdentifiers": {
		"approve(address,uint256)": "095ea7b3",
		"balanceOf(address)": "70a08231",
		"baseAmount()": "4864d140",
		"baseTokenURI()": "d547cfb7",
		"createToken(string,uint256)": "72b3b620",
		"getAllNFTs()": "e0391b09",
		"getApproved(uint256)": "081812fc",
		"getCurrentToken()": "ef2d1746",
		"getListPrice()": "68f1945f",
		"getListedTokenForId(uint256)": "8e264590",
		"getMyNFTs()": "629cb2e4",
		"isApprovedForAll(address,address)": "e985e9c5",
		"listPrice()": "6eb588d9",
		"name()": "06fdde03",
		"owner()": "8da5cb5b",
		"ownerOf(uint256)": "6352211e",
		"renounceOwnership()": "715018a6",
		"rentables(uint256)": "9874cd97",
		"safeTransferFrom(address,address,uint256)": "42842e0e",
		"safeTransferFrom(address,address,uint256,bytes)": "b88d4fde",
		"setApprovalForAll(address,bool)": "a22cb465",
		"supportsInterface(bytes4)": "01ffc9a7",
		"symbol()": "95d89b41",
		"tokenURI(uint256)": "c87b56dd",
		"transferFrom(address,address,uint256)": "23b872dd",
		"transferOwnership(address)": "f2fde38b"
	},
	"id": 2
}